:100000000C942F010C9457010C9457010C94570138
:100010000C9457010C9457010C9457010C94570100
:100020000C9457010C9457010C9457010C945701F0
:100030000C9457010C9457010C9457010C945701E0
:100040000C94F4150C9457010C94C2150C949C1547
:100050000C9457010C9457010C9457010C945701C0
:100060000C9457010C945701084AD73B3BCE016EC4
:1000700084BCBFFDC12F3D6C74319ABD56833DDAFF
:100080003D00C77F11BED9E4BB4C3E916BAAAABE0E
:10009000000000803F05A84CCDB2D44EB93836A937
:1000A000020C50B9918688083CA6AAAA2ABE000074
:1000B00000803F004E414E494E495459494E46CD6D
:1000C000CCCC3D0AD7233C17B7D13877CC2B32950F
:1000D00095E6241FB14F0A000020410000C84200ED
:1000E000401C4620BCBE4CCA1B0E5AAEC59D747C3B
:1000F0003C3E5E2B3D3F2F5B5D3B2C2A225C00008B
:10010000000000240027002A000000000023002631
:10011000002900000000080002010000030407009D
:1001200000000000000000000000000000000000CF
:1001300000000000000000000000000000000000BF
:1001400000000001010101010101010101010101A2
:100150000202020202020202030303030303030476
:100160000404040405050505060606060707070737
:100170000808080909090A0A0A0B0B0B0C0C0D0DDB
:100180000D0E0E0F0F10101111121213131414155F
:1001900015161617181819191A1B1B1C1D1D1E1FC2
:1001A000202021222323242526272728292A2B2CF7
:1001B0002D2E2F303132323334363738393A3B3CFA
:1001C0003D3E3F40424344454648494A4B4D4E4FD1
:1001D000515253555657595A5C5D5F60626365666C
:1001E00068696B6D6E7072737577787A7C7E7F81CB
:1001F000838587898A8C8E90929496989A9C9EA0EB
:10020000A2A4A7A9ABADAFB1B4B6B8BABDBFC1C4C3
:10021000C6C8CBCDD0D2D5D7DADCDFE1E4E7E9EC54
:10022000EFF1F4F7F9FCFF0102040810204080010F
:10023000020408102001020408102000000000251C
:100240000028002B00040404040404040402020235
:10025000020202030303030303003E163B1C1124A6
:100260001FBECFEFD8E0DEBFCDBF12E0A0E0B1E00F
:10027000E4EDF7E402C005900D92A638B107D9F776
:1002800026E0A6E8B2E001C01D92AB32B207E1F76A
:1002900011E0CEE2D1E004C02197FE010E948F223E
:1002A000CD32D107C9F70E9430170C94DD230C948E
:1002B00000001F93CF93DF9311E0180F20911506D4
:1002C0001217A1F1C0911606D0911706215070E0C7
:1002D00060E061F08F3FF1F430E050E040E06FEF1C
:1002E0007FEF80E090E00E940F1FB901FE01409176
:1002F000110650911206CF018C1B9D0B8417950798
:1003000098F44081469FC001479F900D112490832F
:100310003196EDCF812F90E0982F88270197622F9B
:1003200070E00E947422E2CF10931506DF91CF9106
:100330001F910895AF92BF92CF92DF92EF92FF92FA
:100340000F931F93CF93DF936C017B018B01040FFD
:10035000151FEB015E01AE18BF08C017D10759F099
:100360006991D601ED91FC910190F081E02DC601DB
:100370000995892B79F7C501DF91CF911F910F91D5
:10038000FF90EF90DF90CF90BF90AF900895FC0169
:10039000538D448D252F30E0842F90E0821B930BEA
:1003A000541710F0CF96089501970895FC01918D90
:1003B000828D981761F0A28DAE0FBF2FB11D5D9693
:1003C0008C91928D9F5F9F73928F90E008958FEF35
:1003D0009FEF0895FC01918D828D981731F0828DE9
:1003E000E80FF11D858D90E008958FEF9FEF089540
:1003F000FC01918D228D892F90E0805C9F4F821BA4
:1004000091098F739927089586E095E00E94F8017D
:1004100021E0892B09F420E0822F089580E090E00C
:10042000892B29F00E94040281110C940000089588
:10043000FC01A48DA80FB92FB11DA35ABF4F2C9159
:10044000848D90E001968F739927848FA689B78950
:100450002C93A089B1898C91837080648C93938D47
:10046000848D981306C00288F389E02D80818F7DEA
:1004700080830895EF92FF920F931F93CF93DF93A2
:10048000EC0181E0888F9B8D8C8D98131AC0E889D0
:10049000F989808185FF15C09FB7F894EE89FF899F
:1004A0006083E889F98980818370806480839FBF3D
:1004B00081E090E0DF91CF911F910F91FF90EF903D
:1004C0000895F62E0B8D10E00F5F1F4F0F7311274D
:1004D000E02E8C8D8E110CC00FB607FCFACFE88988
:1004E000F989808185FFF5CFCE010E941802F1CFF6
:1004F000EB8DEC0FFD2FF11DE35AFF4FF0829FB7FC
:10050000F8940B8FEA89FB8980818062CFCFCF93EB
:10051000DF93EC01888D8823B9F0AA89BB89E8892B
:10052000F9898C9185FD03C0808186FD0DC00FB6D1
:1005300007FCF7CF8C9185FFF2CF808185FFEDCF4F
:10054000CE010E941802E9CFDF91CF910895833048
:1005500081F028F4813099F08230A9F00895873035
:10056000A9F08830C9F08430B1F4809180008F7D8B
:1005700003C0809180008F7780938000089584B5B8
:100580008F7784BD089584B58F7DFBCF8091B000B7
:100590008F778093B00008958091B0008F7DF9CF60
:1005A0001F93CF93DF93282F30E0F901ED5EFE4FCC
:1005B0008491F901E95DFD4FD491F901EB5BFD4FA9
:1005C000C491CC23A9F0162F81110E94A702EC2F11
:1005D000F0E0EE0FFF1FE55CFD4FA591B4918FB7E2
:1005E000F894EC91111108C0D095DE23DC938FBFF5
:1005F000DF91CF911F910895DE2BF8CFCF93DF933A
:1006000090E0FC01E95DFD4F24918B5B9D4FFC0167
:1006100084918823C9F090E0880F991FFC01E15074
:10062000FF4FA591B491FC01E55CFD4FC591D491BC
:1006300061110DC09FB7F8948C91209582238C9303
:100640008881282328839FBFDF91CF91089562304E
:1006500051F49FB7F8943C91822F809583238C931B
:10066000E8812E2BEFCF8FB7F894EC912E2B2C93A3
:100670008FBFEACF3FB7F894809192029091930296
:10068000A0919402B091950226B5A89B05C02F3F7A
:1006900019F00196A11DB11D3FBFBA2FA92F982FA8
:1006A0008827BC01CD01620F711D811D911D42E0A3
:1006B000660F771F881F991F4A95D1F708950F93EA
:1006C0001F93CF93DF93CDB7DEB729970FB6F8947A
:1006D000DEBF0FBECDBF0E943A0300911C061091F1
:1006E0001D0620911E0630911F06601771078207B4
:1006F000930740F460931C0670931D0680931E06BA
:1007000090931F0600911C0610911D0620911E0655
:1007100030911F06601B710B820B930B6C32714082
:1007200081059105C0F2F89480911106909112060E
:100730009A838983E0911606F0911706DF011196DE
:100740008081898790910D06E0912006F091210625
:1007500080912206992309F445C09081982B9887AF
:100760009081809589238F838F818C8388E08B8310
:1007700058856F8149853B812C8189819A8150837D
:1007800047FD252F3A952083262F39F0441F00C0BE
:1007900000006083000000C0F2CF38E04D9160831C
:1007A0000000019761F7F0932106E0932006498746
:1007B0003B832C839A83898378940E943A036093C5
:1007C0001C0670931D0680931E0690931F062996A3
:1007D0000FB6F894DEBF0FBECDBFDF91CF911F9152
:1007E0000F9108959081982B988790818095892307
:1007F0008F838F818E8388E08D8358856F814985B3
:100800003D812E8189819A81508347FD252F00C02B
:1008100000C0208300C000C000C000C000C06083D2
:100820000000262F3A9541F0441F000000C000C090
:1008300000C000C000C0E8CF38E04D9100C0608328
:1008400000C0019709F7F0932106E093200649873D
:100850003D832E83AFCF2FB7F89460918E027091B5
:100860008F0280919002909191022FBF08958FB7CF
:10087000F894809187028FBF089561E0FC01848124
:100880000E94D00280918602811110928602089502
:100890008EBD00000DB407FEFDCF8EB508958FEF1D
:1008A0000C9448040F931F93CF93DF93EC010E94A5
:1008B0002B048B010E944F048F3F69F00E942B0490
:1008C000601B710B6C177D07A8F380E0DF91CF915F
:1008D0001F910F91089581E0F9CF8CBD9DBD0895C2
:1008E000CF93DF93EC0180918602811109C081E0F2
:1008F000809386028091A3059091A4050E946D04C7
:1009000060E08C81DF91CF910C94D0028F929F9206
:10091000AF92BF92FF920F931F93CF93DF93EC019F
:10092000F62E49015A018E81882389F08F8198859E
:100930009C012F5F3F4F38872F838230924018F4FD
:100940000E944F04F3CFCE010E943D041E82CE01CF
:100950000E9470048CE291E00E9452048F2D80640A
:100960000E94480408E110E0D501C401002E04C033
:10097000B695A795979587950A94D2F70E94480453
:1009800008501109083F8FEF180771F785E9FF201C
:1009900021F028E087E8F2128FEF0E94480410E06F
:1009A0000E944F048A8787FF04C01F3F11F01F5F1A
:1009B000F7CFDF91CF911F910F91FF90BF90AF9034
:1009C0009F908F900895AF92BF92CF92DF92EF9257
:1009D000FF920F931F93CF93DF93EC016901C8013E
:1009E000820F931F8130924050F58E81882379F0D9
:1009F00088819981AA81BB8184179507A607B707CB
:100A000031F48F819885C816D90608F042C0488312
:100A100059836A837B838B85833039F089E0440F67
:100A2000551F661F771F8A95D1F79A01AB0161E1C7
:100A3000CE010E948604882389F083E08D83CE0155
:100A40000E943D0480E0DF91CF911F910F91FF90B4
:100A5000EF90DF90CF90BF90AF9008950E942B044D
:100A60005B010E944F048A878F3F69F40E942B0428
:100A70006A197B096D327140A0F38FE08D83CE013E
:100A80000E943D04DCCF8E3F89F418861F8281E0EE
:100A90008E838F8198858C159D0550F40E944F049C
:100AA0008F819885019698878F83F3CF8DE0E6CF6D
:100AB0006701E00EF11E0E944F04F60181936F0161
:100AC000EE15FF05C1F78F819885080F191F18874C
:100AD0000F838985882319F001151240A0F08E81BB
:100AE000882389F08F8198859C012F5F3F4F38873D
:100AF0002F838230924018F40E944F04F3CFCE012E
:100B00000E943D041E8281E09ECFCF92DF92EF9241
:100B1000FF920F93CF93DF93EC01690182E14115BE
:100B200051056105710599F08B85833039F089E0B5
:100B3000440F551F661F771F8A95D1F79A01AB01A5
:100B400068E1CE010E948604882319F084E08D8339
:100B50002DC08EEF0E94480476018EEFD81AF7015F
:100B600081917F010E944804EC14FD04C1F78FEFCE
:100B70000E9448048FEF0E9448040E944F048A8715
:100B80008F71853071F4011116C0CE010E943D04B1
:100B900081E0DF91CF910F91FF90EF90DF90CF90A8
:100BA000089581E18D83CE010E943D04CE010E9413
:100BB0003D0480E0EECF88E592E00E94520481116E
:100BC00002C085E1C4CF20E030E0A9016DE0CE0194
:100BD0000E948604882311F084E1B9CF0E944F045B
:100BE0008111FACFD2CF0F934091890250918A029E
:100BF00060918B0270918C02411551056105710560
:100C000099F0082F24E033E08091040590910505C8
:100C10000E948505882349F01092890210928A0269
:100C200010928B0210928C0281E00F9108950F9325
:100C3000CF93C82F80918802811105C0C1E08C2F0D
:100C4000CF910F9108954091000150910101609161
:100C50000201709103010C2F24E033E08091040520
:100C6000909105050E948505811102C0C0E0E7CF83
:100C7000CC2321F381E00E94F3058823B9F310927D
:100C80008802DDCF8F929F92AF92BF92EF92FF9238
:100C90000F931F93CF934B015C01C42F80910001F0
:100CA00090910101A0910201B0910301881599056D
:100CB000AA05BB0551F181E00E94170681110BC006
:100CC00080E0CF911F910F91FF90EF90BF90AF9078
:100CD0009F908F90089584E0E82E83E0F82E00E046
:100CE00012E030E020E0B501A4018091040590916C
:100CF00005050E94E304882319F380920001909275
:100D00000101A0920201B0920301409188024C2B94
:100D10004093880281E0D5CF8F929F92AF92BF928D
:100D2000CF92DF92EF92FF92CF9325EA35E0309396
:100D3000050520930405882309F46DC040E060E0B8
:100D400070E0CB010E94420681110BC080E0CF9180
:100D5000FF90EF90DF90CF90BF90AF909F908F90DB
:100D600008958091C2048F7789F78091CE04909185
:100D7000CF04A091D004B091D10484369105A1058F
:100D8000B10520F3C090CA04D090CB04E090CC040D
:100D9000F090CD04C114D104E104F104B9F240E0B3
:100DA000C701B6010E944206882381F280910F0399
:100DB000909110038115924049F6A0911403AA2343
:100DC00029F260911203709113036115710509F402
:100DD000BDCF20911103222309F4B8CFA093C305FE
:100DE0002093B50590E080E030E0E1E0F0E0C82F2E
:100DF000AF01082E02C0440F551F0A94E2F72417D2
:100E0000350769F041E0480F01968930910579F77F
:100E10004093BE059BCFC12CD12C7601C0CF8093CF
:100E2000BE0520911A0330911B0350E040E02115CC
:100E3000310541F4209128033091290340912A0380
:100E400050912B032093B6053093B7054093B80516
:100E50005093B90546015701860E971EA11CB11C7F
:100E60008092C4059092C505A092C605B092C705B0
:100E7000E0911503F0911603F093CA05E093C905BC
:100E8000B0E00E942E1FDC01CB01880D991DAA1D28
:100E9000BB1D8093CB059093CC05A093CD05B0935B
:100EA000CE0525E0EE0FFF1F2A95E1F7E150FE4F3A
:100EB000EF2FFF27E6958E0F9F1FA11DB11D809379
:100EC000BF059093C005A093C105B093C205809063
:100ED000170390901803B12CA12C8114910441F4B4
:100EE0008090240390902503A0902603B0902703C0
:100EF000C81AD90AEA0AFB0AC80CD91CEA1CFB1C4E
:100F000004C0F694E794D794C794CA95D2F7C092D8
:100F1000BA05D092BB05E092BC05F092BD0585EF05
:100F2000C8168FE0D806E104F10428F48CE0809321
:100F3000C80581E00CCF80E125EFC2162FEFD20665
:100F4000E104F104A0F38091300390913103A0916A
:100F50003203B09133038093CB059093CC05A093DB
:100F6000CD05B093CE0580E2E2CF4F925F926F92B3
:100F70007F928F929F92AF92BF92CF92DF92EF9229
:100F8000FF920F931F93CF93DF93EC0142305105F3
:100F90006105710590F480E0DF91CF911F910F9171
:100FA000FF90EF90DF90CF90BF90AF909F908F9089
:100FB0007F906F905F904F90089589859A85AB855B
:100FC000BC850196A11DB11D84179507A607B7071B
:100FD00010F3CB88DC88ED88FE888F89803109F09A
:100FE00042C0BB27A72F962F852F480159012A0100
:100FF0003B01C80ED91EEA1EFB1E80910001909194
:101000000101A0910201B0910301C816D906EA06B8
:10101000FB0699F58F898031C1F5B301A2015527EF
:1010200066277727440F551F4C5F5C4FFA0191826A
:101030008082809188028160809388028A898230D0
:1010400080F08D819E81AF81B8858C0D9D1DAE1D78
:10105000BF1D8093890290938A02A0938B02B09364
:101060008C0281E099CFDB01CA01E7E0B695A79534
:1010700097958795EA95D1F7B8CF40E0C701B601BB
:101080000E9442068111C6CF86CFB301A2014F77DD
:10109000552766277727440F551F440F551F4C5F70
:1010A0005C4FFA0180829182A282B382C2CF8F927A
:1010B0009F92AF92BF92CF92DF92EF92FF920F93E7
:1010C0001F93CF93DF93FC0181859285A385B4851F
:1010D0000196A11DB11D84179507A607B70770F4E7
:1010E00080E0DF91CF911F910F91FF90EF90DF9003
:1010F000CF90BF90AF909F908F90089583889488F1
:10110000A588B6888789803189F5BB27A72F962FB8
:10111000852FE9016A017B018F01BC01CD01680DBA
:10112000791D8A1D9B1D8090000190900101A09067
:101130000201B090030186169706A806B90601F5CC
:10114000F8018789803111F5DD24EE24FF24F601B2
:10115000EE0FFF1FEC5FFC4F80819181B0E0A0E0BB
:1011600088839983AA83BB8381E0BBCFDB01CA015B
:10117000C7E0B695A79597958795CA95D1F7C9CF3A
:1011800040E00E9442068111DBCFAACFE894C7F865
:10119000DD24EE24FF24F601EE0FFF1FEE0FFF1FEC
:1011A000EC5FFC4F80819181A281B381BF70D8CF69
:1011B0004F925F926F927F92AF92BF92CF92DF92E7
:1011C000EF92FF920F931F93CF93DF9300D000D045
:1011D000CDB7DEB78C0149835A836B837C83590179
:1011E000C12CD12C7601412C82E0582E612C712C1F
:1011F00049815A816B817C819E012F5F3F4FC801DD
:101200000E945708882339F1F8018585A3019201CE
:1012100004C0220F331F441F551F8A95D2F7DA01ED
:10122000C901C80ED91EEA1EFB1E49815A816B8175
:101230007C818789803111F188EF9FEFAFEFBFE0AC
:10124000481759076A077B0798F2F501C082D182D7
:10125000E282F38281E00F900F900F900F90DF9168
:10126000CF911F910F91FF90EF90DF90CF90BF90A3
:10127000AF907F906F905F904F90089588EF9FEFB1
:10128000A0E0B0E0DDCFCF93DF93FC0125812223E6
:1012900021F080E0DF91CF910895EC018091C805A5
:1012A000803159F582E08583178A108E118E128E57
:1012B0008091C9059091CA05B0E0A0E025E0880FB3
:1012C000991FAA1FBB1F2A95D1F7838B948BA58BDF
:1012D000B68B81EB95E09C8F8B8F81E08C831E8297
:1012E0001F82188619861A861B861C861D861E86F6
:1012F0001F86188A198A1A8ACDCF803251F683E068
:1013000085834091CB055091CC056091CD057091BE
:10131000CE05478B508F618F728F9F012D5E3F4F9F
:1013200081EB95E00E94D8088111D3CFB2CF8F9284
:101330009F92AF92BF92CF92DF92EF92FF920F9364
:101340001F93CF93DF93EC018D8181110EC080E05C
:10135000DF91CF911F910F91FF90EF90DF90CF9091
:10136000BF90AF909F908F9008950B891C892D8915
:101370003E89041715072607370748F34A015B0122
:10138000823031F48A869B86AC86BD8681E0E0CFD0
:1013900081149104A104B10449F41E821F821886AD
:1013A00019861A861B861C861D86F0CF0A851B852A
:1013B0002C853D85EB8DFC8D858590E00996B901E6
:1013C000A8014150510961097109082E04C07695A0
:1013D0006795579547950A94D2F775016401E1E046
:1013E000CE1AD108E108F10804C0F694E794D79426
:1013F000C7948A95D2F7C416D506E606F70620F0FC
:10140000012B022B032B11F58F89988DA98DBA8D95
:101410008E839F83A887B9878E010A5F1F4FC114EF
:10142000D104E104F10409F4ADCF4E815F816885F8
:10143000798598018B8D9C8D0E94570891E0C91A7F
:10144000D108E108F1088111EACF81CFC41AD50A89
:10145000E60AF70AE1CF3F924F925F926F927F9236
:101460008F929F92AF92BF92CF92DF92EF92FF92B4
:101470000F931F93CF93DF93CDB7DEB72C970FB6A3
:10148000F894DEBF0FBECDBF5C01DC015B968D9092
:101490009C905C9716964D905D906D907C901997FE
:1014A000411451046104710409F468C0BFEF4B1A80
:1014B0005B0A6B0A7B0A312CF40181859285A38536
:1014C000B4859C01AD012F5F3F4F4F4F5F4F298780
:1014D0003A874B875C87730162011D821E821F82DF
:1014E0001886F40181859285A385B4852D813E817E
:1014F0004F815885281739074A075B0708F056C0FF
:1015000089859A85AB85BC858C159D05AE05BF0583
:1015100050F482E0C82ED12CE12CF12C92E0492E1F
:10152000512C612C712C9E012F5F3F4FB701A601FA
:10153000C4010E9457088823C9F189819A81AB812F
:10154000BC81892B8A2B8B2B09F1260137019FEF58
:10155000491A590A690A790A2D813E814F815885B5
:101560002F5F3F4F4F4F5F4F2D833E834F835887F1
:101570003FEFC31AD30AE30AF30AB3CFF401408062
:101580005180628073803324339496CFC414D50481
:10159000E604F70409F70FEF1FEF2FEF3FE0B70165
:1015A000A601C4010E94B507811119C080E02C96E4
:1015B0000FB6F894DEBF0FBECDBFDF91CF911F9164
:1015C0000F91FF90EF90DF90CF90BF90AF909F90E2
:1015D0008F907F906F905F904F903F900895D501CE
:1015E00016964D915D916D917C911997411551051C
:1015F0006105710539F097018601C4010E94B507A4
:101600008823A1F2D5011696CD92DD92ED92FC923F
:101610001997332051F0D701C6010196A11DB11DC4
:10162000F40180839183A283B383F5018789908D30
:10163000A18DB28D892B8A2B8B2B39F48481C78A9B
:10164000D08EE18EF28E80688483F5018481806281
:10165000848381E0ACCF1F93CF93DF93FC0125817E
:101660002223D1F1162FEC01848187FF2AC06685E1
:1016700077858089918941E00E944206882361F143
:10168000EA8980E2E89FF0011124EC5FFC4F30977B
:1016900019F18D81823040F48B899C89AD89BE8996
:1016A000848F958FA68FB78F8F89988D938F828F18
:1016B0008F89988DA98DBA8DB58BA48B8C818F77EE
:1016C0008C83111103C08C818F7E8C83812FDF91DD
:1016D000CF911F910C94170680E0DF91CF911F915D
:1016E0000895FF920F931F93CF93DF93EC018D81A9
:1016F000813041F090E080E0DF91CF911F910F9118
:10170000FF9008958C8181FFF5CF82FD1BC0009171
:10171000040510910505C8010E9470040E944F0441
:10172000F82EC8010E943D048FEFF812E3CF8C81A0
:1017300085FF1BC060E0CE010E942B0B8C818F7D4A
:101740008C83D8CF4B895C896D897E898A859B85FE
:10175000AC85BD8584179507A607B707C1F2CE01F2
:101760000E9497098111D3CFC5CF40918902509132
:101770008A0260918B0270918C02452B462B472B7D
:1017800021F080E00E94F305B5CF80618C832A852B
:101790003B85317080E092E0821B930BADCFCF93FD
:1017A000DF93EC0161E00E942B0B882311F01D8276
:1017B00081E0DF91CF9108952F923F924F925F92F7
:1017C0006F927F928F929F92AF92BF92CF92DF9251
:1017D000EF92FF920F931F93CF93DF9300D000D02F
:1017E0001F92CDB7DEB77C015B01342E5D83DC0137
:1017F00015968C911597813009F0CEC014962C90D7
:1018000021FECAC022FCB4C0C32CDD8022947FE03C
:1018100027222094B22DB1702B2ED7011A964D910C
:101820005D916D917C911D97C114D10409F428C17B
:101830005B968D919C915C97FC0174807A948A01EF
:101840009B0169E036952795179507956A95D1F71D
:1018500070228A011170711020C001151105E9F480
:1018600016964D915D916D917C9119974115510599
:101870006105710509F099C057968D919D910D9064
:10188000BC91A02D0097A105B10509F0B0C0C7011A
:101890000E942B0A882309F47FC080E092E0801B1D
:1018A000910B46018C159D0508F44C01D7015B9600
:1018B0004D915C915C9716968D919D910D90BC9188
:1018C000A02D0297A109B109FA01258504C0880F4E
:1018D000991FAA1FBB1F2A95D2F746855785608995
:1018E0007189840F951FA61FB71F9C01AD01270D9D
:1018F000311D411D511D29013A01811432E0930629
:1019000009F07BC08091000190910101A09102013A
:10191000B091030184159505A605B70559F48FEF1D
:101920009FEFDC018093000190930101A0930201DD
:10193000B0930301022D9501B301A201809104052A
:10194000909105050E948505882331F19EEFB91A13
:10195000C818D908F70182859385A485B585880DB7
:10196000991DA11DB11D82879387A487B58755CF87
:10197000F701438954896589768982859385A48591
:10198000B585481759076A077B0709F43DCFC7019A
:101990000E949709811138CF81E090E0D70113961A
:1019A0009C938E93129780E007C09E012F5F3F4F5C
:1019B0000E945708811102C090E079C089819A8104
:1019C000AB81BC81F701238D348DF901278948EF64
:1019D0005FEF60E070E0203121F048EF5FEF6FEFE4
:1019E0007FE084179507A607B70708F050CFF701E7
:1019F00086839783A087B18750CF0115110599F58C
:101A0000D7011A964D915D916D917C911D975396DA
:101A10008D919D910D90BC91A02D481759076A0793
:101A20007B0708F181E00E941706882309F4B4CFF0
:101A300040920001509201016092020170920301F4
:101A400080918802816080938802C8018C5F9C4FDE
:101A5000D5019C01280D391DFC012E173F0759F0B7
:101A60004D914193FACF41E0C301B2010E94420679
:101A70008111EBCF91CF281B390BA20EB31E68CF7B
:101A8000F70183899489A589B68984179507A607E4
:101A9000B70738F48481438B548B658B768B8068D1
:101AA0008483F701848183FD1AC0832D9D810F906B
:101AB0000F900F900F900F90DF91CF911F910F918A
:101AC000FF90EF90DF90CF90BF90AF909F908F905E
:101AD0007F906F905F904F903F902F90089561E0BE
:101AE000C7010E942B0B882309F456CFDECFCF937A
:101AF000DF931F92CDB7DEB7698341E050E0BE01AE
:101B00006F5F7F4F0E94DC0B0F90DF91CF910895A4
:101B1000FC01DB0112968D919C9113979383828334
:101B200080E391E09183808314968C911497848351
:101B300015968C911597858316964D915D916D91B3
:101B40007C91199746835783608771871A964D91C8
:101B50005D916D917C911D9742875387648775874E
:101B60001E964D915D916D917C9151974687578757
:101B7000608B718B52968C915297828B53964D91BC
:101B80005D916D917C915697438B548B658B768BD1
:101B900057964D915D916D917C915A97478B508FDF
:101BA000618F728F5B968D919C91948F838F089536
:101BB0000895FC01818D928D009719F061E00C94DD
:101BC0002B0B0895DC015996ED91FC913097B9F0FB
:101BD00083899489A589B6894285538564857585ED
:101BE000841B950BA60BB70B811520E89207A10566
:101BF000B10538F08FEF9FE7A0E0B0E0089590E0E6
:101C000080E00895DC0159968D919C91009739F000
:101C1000DC01ED91FC910480F581E02D099490E0C8
:101C200080E00895CF93DF93EC01E98DFA8D309732
:101C300049F481E090E09B838A8390E080E0DF912B
:101C4000CF91089513821282898D9A8D0E94DC0BA8
:101C5000E98DFA8D22813381232B59F7F0CFCF9371
:101C6000DF931F92CDB7DEB76983DC01ED91FC9164
:101C70000280F381E02D41E050E0BE016F5F7F4FB5
:101C800009950F90DF91CF9108952F923F924F9237
:101C90005F926F927F928F929F92AF92BF92CF92FC
:101CA000DF92EF92FF920F931F93CF93DF9300D0B9
:101CB0001F92CDB7DEB7FC018581811118C08FEF6F
:101CC0009FEF0F900F900F90DF91CF911F910F9189
:101CD000FF90EF90DF90CF90BF90AF909F908F904C
:101CE0007F906F905F904F903F902F9008958481E8
:101CF00080FFE5CF438954896589768982859385FC
:101D0000A485B585312C212C481759076A077B0714
:101D100019F022242394312C6F012101CE01019668
:101D20003C01DF011696BB83AA834114510409F4D8
:101D3000C5C0F60142855385648575854A01F1E089
:101D40009F22D6015B968D919C915C978A019B01A5
:101D5000E9E03695279517950795EA95D1F71596F9
:101D6000EC91E230E9F5FC01628D738D848D958DE7
:101D7000600F711F821F931FA12C22E0B22EA818A2
:101D8000B9084A145B0408F45201F601248126FDC7
:101D900004C0A114F2E0BF0671F40091000110919B
:101DA000010120910201309103010617170728074E
:101DB000390709F05EC040E00E944206882309F41A
:101DC0007ECFC4018C5F9C4FD3019C012A0D3B1D2B
:101DD000FC012E173F0709F46CC041914D93F9CFD8
:101DE000DC011496BC90BA94B0228114910479F469
:101DF000B1100DC0452B462B472B69F5F60187899D
:101E0000908DA18DB28D86839783A087B187D601EF
:101E10005B96ED91FC915C9716966D917D918D91FD
:101E20009C9119976250710981099109258504C017
:101E3000660F771F881F991F2A95D2F70685178589
:101E400020893189600F711F821F931F6B0D711DD7
:101E5000811D911D91CFD60116964D915D916D9189
:101E60007C9119972A813B810E9457088111CFCF1D
:101E700026CF730185019401AB01BC01809104055B
:101E8000909105050E94E304882309F418CF6A0C99
:101E90007B1CF60182859385A485B5858A0D9B1DE3
:101EA000A11DB11D82879387A487B5874A185B0857
:101EB0003CCF281B390B620E731EEBCF2A942328CC
:101EC00009F0FDCE898190E0FCCEFC01818D928DE0
:101ED000009711F00C94450E8FEF9FEF08950F932C
:101EE0001F93CF93DF93EC01898D9A8D10E000E072
:101EF000009799F00E94450E8C010F3F100769F082
:101F0000898D9A8DFC014285538564857585415084
:101F10005109610971090E949709C801DF91CF91A8
:101F20001F910F910895CF92DF92EF92FF921F932E
:101F3000CF93DF93EC0180E2689FF0011124EC5F06
:101F4000FC4F9385917161F0842F827449F080E099
:101F5000DF91CF911F91FF90EF90DF90CF90089588
:101F6000142F6A8B8091000190910101A0910201D0
:101F7000B09103018E879F87A88BB98BC488D588C1
:101F8000F12CE12C7601DD24CC24CF8AD88EE98E89
:101F9000FA8E828D938DB0E0A0E0AC01BD014C299A
:101FA0005D296E297F294F8B588F698F7A8F8385A2
:101FB0008871B1F4848D958DA68DB78D8B8B9C8B9C
:101FC000AD8BBE8B81E08D831F701C831E821F82B0
:101FD000188619861A861B861C861D8681E0B8CF56
:101FE000803109F0B4CF9E012D5E3F4F8B8D9C8DCB
:101FF0000E94D808882309F4AACF84E0E4CFFB012B
:1020000001900020E9F73197AF01461B570BDC0127
:10201000ED91FC910280F381E02D09948F929F92C3
:10202000AF92BF92EF92FF920F931F93CF93DF93E4
:10203000CDB7DEB7A1970FB6F894DEBF0FBECDBF08
:102040007C01FA01CB0119A2223008F42AE08E01AA
:102050000F5D1F4F822E912CB12CA12CBF01A50129
:1020600094010E94701FF901CA016A300CF5605D8D
:10207000D8016E938D01232B242B252B79F790E02B
:1020800080E0109721F0BD01C7010E94FF0FA196CB
:102090000FB6F894DEBF0FBECDBFDF91CF911F9179
:1020A0000F91FF90EF90BF90AF909F908F90089509
:1020B000695CDECFCF92DF92EF92FF92CF93DF93F6
:1020C0006B017C016DE28EEE95E00E942F0EEC011B
:1020D00044275527BA014C195D096E097F092AE08A
:1020E0008EEE95E00E940E108C0F9D1FDF91CF9118
:1020F000FF90EF90DF90CF900895CF93DF93D0E0E3
:10210000C0E0009731F0BC0186E095E00E94FF0F2F
:10211000EC016AE471E086E095E00E94FF0F8C0F0D
:102120009D1FDF91CF9108952F923F924F925F9222
:102130006F927F928F929F92AF92BF92CF92DF92D7
:10214000EF92FF921F93CF93DF93EC016A017B0123
:10215000722EAB019601CB01B6010E9454226DE4B0
:1021600071E0811126C046015701E894B7F82FEFBE
:102170003FEF4FE75FE7C501B4010E945422811190
:102180000CC02FEF3FEF4FE75FE7C501B4010E949E
:10219000E81D61E571E0181664F02FEF3FEF4FE79F
:1021A0005FE4C701B6010E94F5211816B4F465E595
:1021B00071E0CE01DF91CF911F91FF90EF90DF9002
:1021C000CF90BF90AF909F908F907F906F905F90D7
:1021D0004F903F902F900C94FF0F2FEF3FEF4FE762
:1021E0005FECC701B6010E94E81D87FDE0CF20E04B
:1021F00030E0A901C701B6010E94E81D312C212C55
:1022000087FF0DC0E881F9810190F081E02D6DE23A
:10221000CE0109951C01F7FAF094F7F8F09410E05C
:1022200060E070E080E09FE3711641F020E030E074
:1022300040E251E40E9485201F5FF6CFA70196017E
:102240000E94A21F2B013C010E94FE204B015C0159
:102250002AE0BC01A401CE010E940E107C01E20C18
:10226000F31C1123E1F1C501B4010E94ED1D9B0196
:10227000AC01C301B2010E94A11F4B015C01E881C6
:10228000F9810190F081E02D6EE2CE010995E80E12
:10229000F91E115020F120E030E040E251E4C50188
:1022A000B4010E944E1E2B013C010E94FE204B01F6
:1022B000B12CA12C2AE0B501A401CE010E940E1080
:1022C000E80EF91EC501B4010E94ED1D9B01AC0191
:1022D000C301B2010E94A11F4B015C01DACFC7010B
:1022E000DF91CF911F91FF90EF90DF90CF90BF9043
:1022F000AF909F908F907F906F905F904F903F90A6
:102300002F900895CF93DF93242FAB01BC0186E07B
:1023100095E00E949410EC016AE471E086E095E09B
:102320000E94FF0F8C0F9D1FDF91CF9108958F9218
:102330009F92AF92BF92CF92DF92EF92FF92CF9394
:10234000DF93EC01CB0170E060E00E944B1C6B015D
:102350007C0120E030E048EC52E40E9485200E949D
:10236000F720072E000C880B990B0E94EF1D4B01E4
:102370005C0120E030E048EC52E40E944E1E9B01DC
:10238000AC01C701B6010E94A11F20E030E040E788
:1023900052E40E948520A50194010E94A21F6B01B6
:1023A0007C0181E0C935D80719F0CB55D14021F423
:1023B000F7FAF094F7F8F0946DE571E086E095E0B7
:1023C0000E94FF0F46E050E0C701B6010E94821153
:1023D000C701B601DF91CF91FF90EF90DF90CF90D2
:1023E000BF90AF909F908F9008953F924F925F92D1
:1023F0006F927F928F929F92AF92BF92CF92DF9215
:10240000EF92FF920F931F93CF93DF93CDB7DEB779
:102410002B970FB6F894DEBF0FBECDBF7C01FE0137
:102420003196CE010C966F0130E23193E817F9072F
:10243000E1F7DA0130E087E09D91B92E992309F4A4
:102440003CC09E32F1F48A30C9F480E02B960FB67E
:10245000F894DEBF0FBECDBFDF91CF911F910F91DA
:10246000FF90EF90DF90CF90BF90AF909F908F90B4
:102470007F906F905F904F903F90089538E08AE092
:10248000DBCFEFEEF0E04491442321F0319694133A
:10249000FACFDBCF8317C8F24FED490F4E35A8F6C0
:1024A0004FE9490F4A3118F440EEB42EB90EF60147
:1024B000E30FF11DB0823F5FBFCF8981803229F2E7
:1024C000322E8B01DB015B968D919C915C97F7011D
:1024D000948F838F16961D921D921D921C921997B0
:1024E000FB011286138614861586F8018285938572
:1024F000A485B585438954896589768984179507AC
:10250000A607B70708F04DC025E0B695A7959795A3
:1025100087952A95D1F7F82FFF70AF2ED801159621
:102520008C91823008F491CFC8010E94450E97FD2E
:102530008CCFF80182859385A485B5854F96A11D22
:10254000B11D82879387A487B587F0E2AF9EB00163
:1025500011246C5F7C4F6115710509F476CFDB01A6
:102560008C91882341F0853E09F062C0BB2029F0A0
:10257000BB24B394BACFB1100EC0F701A28A8091E8
:10258000000190910101A0910201B09103018687A1
:102590009787A08BB18BDB018C918111E9CFBB2494
:1025A000B394832D8271823109F04FCFBB2009F49F
:1025B0004DC0F701668577858089918941E00E9449
:1025C0004206882309F441CFD70152968C91B0E29C
:1025D0008B9FC00111248C5F9C4F009709F435CF6D
:1025E000FC013A9626E1DF011D922A95E9F72BE0DE
:1025F000F601DC0101900D922A95E1F721E238E223
:10260000FC01318B208B40E058E057874687338BA5
:10261000228B318F208F578B468B81E00E941706CB
:10262000882309F412CF432DD70152966C910AC02A
:102630004BE050E0C6010E94BA23892B09F055CF28
:10264000432D6A2DC7010E94930F00CFF8018581A9
:10265000823009F4FACEC8010E942B0A882309F4BB
:10266000F4CED8015B96ED91FC915C9716968D9017
:102670009D90AD90BC901997B2E08B1A9108A1087B
:10268000B108858504C0880C991CAA1CBB1C8A95BE
:10269000D2F786859785A089B189880E991EAA1ED2
:1026A000BB1E848124013501480E511C611C711C24
:1026B00084149504A604B70409F1E1E04E1A510808
:1026C0006108710881E00E941706882309F4BDCED5
:1026D000E4E0F3E0119284E095E08E179F07D1F7D4
:1026E0004092000150920101609202017092030138
:1026F00080918802816080938802DACFD8015B964E
:10270000ED91FC91258580E092E0A0E0B0E004C06E
:10271000880F991FAA1FBB1F2A95D2F7F80143897A
:10272000548965897689840F951FA61FB71F838BEF
:10273000948BA58BB68BD70152961C9284E093E0C4
:102740004FCFEF92FF920F931F93CF93DF93EC0144
:102750007B018A011B821A8288EE93E0A0E0B0E040
:102760008C839D83AE83BF838CE391E099838883C0
:102770008DE190E00E9495229A8F898F009779F0E1
:102780002DE1F701DC0101900D922A95E1F74CE073
:1027900050E0B801CE010C960E94CE23188EDF9136
:1027A000CF911F910F91FF90EF9008954F925F92FC
:1027B0006F927F928F929F92AF92BF92CF92DF9251
:1027C000EF92FF920F931F93CF93DF93CDB7DEB7B6
:1027D00064970FB6F894DEBF0FBECDBF29013A0152
:1027E000E982FA820B831C8325E33AEF4EE85CE32F
:1027F0000E944E1E6D837E838F83988725E33AEF78
:102800004EE85CE3C801B7010E944E1E69877A87D3
:102810008B879C87A3019201C601B5010E94A11F6D
:1028200025E33AEF4EE85CE30E944E1E2B013C018B
:102830000E9402226D877E878F87988B69857A85B3
:102840008B859C850E94802069837A838B839C83FF
:102850006D817E818F8198850E948020698B7A8B23
:102860008B8B9C8B69857A858B859C850E94022247
:102870004B015C016D817E818F8198850E940222CF
:102880006D837E838F839887C301B2010E9480206D
:102890002B013C01A501940169897A898B899C8966
:1028A0000E944E1E6B017C012D813E814F81588517
:1028B00069817A818B819C810E944E1EA3019201C5
:1028C0000E944E1E9B01AC01C701B6010E94A11FD0
:1028D0006B017C0129813A814B815C816D857E850C
:1028E0008F8598890E944E1EA70196010E94212083
:1028F00021EE3EE245E652E40E944E1E20E030E02A
:1029000044EB53E40E94A21F20E030E044EB53E488
:102910000E9438216B017C0168E771E086E095E058
:102920000E94FF0F46E050E0C701B6010E948211ED
:10293000C701B60164960FB6F894DEBF0FBECDBFD7
:10294000DF91CF911F910F91FF90EF90DF90CF908B
:10295000BF90AF909F908F907F906F905F904F90BF
:1029600008954F925F926F927F928F929F92AF9253
:10297000BF92CF92DF92EF92FF920F931F93CF936C
:10298000DF93CDB7DEB72C970FB6F894DEBF0FBE3E
:10299000CDBF2B013C0129873A874B875C87E982B1
:1029A000FA820B831C83AC019B01C801B7010E9412
:1029B000A11F2BED3FE049E450E40E944E1E20E0B1
:1029C00030E044E353E40E94852020E030E040E022
:1029D0005FE30E944E1E0E9402226D837E838F83DE
:1029E00098872BED3FE049E450E4C301B2010E9417
:1029F0004E1E20E030E044E353E40E9485200E9414
:102A000080202B013C012BED3FE049E450E4C8015C
:102A1000B7010E944E1E20E030E044E353E40E94E0
:102A200085200E94802069837A838B839C832985FB
:102A30003A854B855C85C601B5010E94A11F2BED2F
:102A40003FE049E450E40E944E1E20E030E044E3C1
:102A500053E40E94852020E030E040E05FE30E94E4
:102A60004E1E0E9402224B015C0129813A814B815A
:102A70005C81C301B2010E944E1EA50194010E9417
:102A80004E1EA50194010E944E1E4B015C012D813A
:102A90003E814F815885CA01B9010E944E1E9B019B
:102AA000AC01C501B4010E94A21F6B017C01AC0105
:102AB0009B0160E070E080E89FE30E94A11F0E94FC
:102AC00010224B015C01C701B6010E941022A50132
:102AD00094010E9421209B01AC010E94A21F20E3CF
:102AE0003BE74FE95BE40E944E1E6B017C0161E90C
:102AF00071E086E095E00E94FF0F46E050E0C701DC
:102B0000B6010E948211C701B6012C960FB6F89447
:102B1000DEBF0FBECDBFDF91CF911F910F91FF9010
:102B2000EF90DF90CF90BF90AF909F908F907F906D
:102B30006F905F904F9008951F920F920FB60F9273
:102B400011242F933F934F935F936F937F938F93B2
:102B50009F93AF93BF93EF93FF9386E095E00E941E
:102B60001802FF91EF91BF91AF919F918F917F914B
:102B70006F915F914F913F912F910F900FBE0F90EA
:102B80001F9018951F920F920FB60F9211242F933A
:102B90008F939F93EF93FF93E0911605F0911705A4
:102BA0008081E0911C05F0911D0582FD1BC0908184
:102BB00080911F058F5F8F7320912005821741F050
:102BC000E0911F05F0E0EA5FFA4F958F80931F05B3
:102BD000FF91EF919F918F912F910F900FBE0F90CA
:102BE0001F9018958081F4CF1F920F920FB60F920D
:102BF00011242F933F938F939F93AF93BF93809113
:102C00008E0290918F02A0919002B091910230912A
:102C10008D0223E0230F2D3758F50196A11DB11D1C
:102C200020938D0280938E0290938F02A093900246
:102C3000B09391028091920290919302A09194029C
:102C4000B09195020196A11DB11D809392029093BF
:102C50009302A0939402B0939502BF91AF919F917C
:102C60008F913F912F910F900FBE0F901F9018954D
:102C700026E8230F0296A11DB11DD2CF109209059F
:102C80001092080588EE93E0A0E0B0E080930A057A
:102C900090930B05A0930C05B0930D058EE191E088
:102CA000909307058093060585EC90E090931305BB
:102CB0008093120584EC90E09093150580931405A1
:102CC00080EC90E0909317058093160581EC90E0DE
:102CD000909319058093180582EC90E090931B0562
:102CE00080931A0586EC90E090931D0580931C0557
:102CF00010921F05109220051092210510922205B6
:102D000080E58093A3051092A4051092AA05109265
:102D1000AB051092AE051092B00582E090E0A0E005
:102D2000B0E08093B1059093B205A093B305B09342
:102D3000B4051092C8051092D2051092D10580E317
:102D400091E09093D0058093CF051092D405109216
:102D50000E061092150610921C0610921D06109277
:102D60001E0610921F0681E080931B0680931806B2
:102D70001092190692E090931A0680930D0688E748
:102D800090E090931206809311060E9495229093F2
:102D9000170680931606009709F459C028E7FC012E
:102DA00011922A95E9F788E290E0909310068093BB
:102DB0000F0686E090E090931406809313068091AE
:102DC0000E06882341F061E086E00E94FE0260E08A
:102DD00086E00E94D002EBE4F2E0E491F0E0EE0F36
:102DE000FF1FE55CFD4F85919491909321068093A0
:102DF0002006EDE2F2E0E491E09322068FEF90E00E
:102E0000A0E0B0E08093090690930A06A0930B0619
:102E1000B0930C061092F1051092F00588EE93E045
:102E2000A0E0B0E08093F2059093F305A093F40541
:102E3000B093F5058CE391E09093EF058093EE0558
:102E400010920806109207061092FA050895109243
:102E50001206109211061092100610920F06A9CFBA
:102E6000CF93DF93CDB7DEB7C657D1090FB6F8942D
:102E7000DEBF0FBECDBF789484B5826084BD84B5BB
:102E8000816084BD85B5826085BD85B5816085BD65
:102E900080916E00816080936E001092810080911D
:102EA00081008260809381008091810081608093A5
:102EB0008100809180008160809380008091B100CA
:102EC00084608093B1008091B00081608093B000F5
:102ED00080917A00846080937A0080917A00826089
:102EE00080937A0080917A00816080937A0080914B
:102EF0007A00806880937A001092C100E0911605F4
:102F0000F091170582E08083E0911205F09113059E
:102F10001082E0911405F091150580E180831092F4
:102F20001E05E0911A05F0911B0586E08083E09173
:102F30001805F0911905808180618083E091180562
:102F4000F0911905808188608083E0911805F091E7
:102F50001905808180688083E0911805F09119053A
:102F600080818F7D8083809113069091140697FD58
:102F700008C061E00E94FE0260E0809113060E949A
:102F8000D00281E080930E0680911606909117067C
:102F9000892B11F00E945F038AE00E945901809101
:102FA000D405882321F08FEC95E00E94CF0B10927E
:102FB000B0051092AE051092AB051092AA058AE0FA
:102FC0008093A9050E942B048B0161E08091A905E3
:102FD0000E94FE0261E08091A9050E94D002FFB626
:102FE000F89480919602811127C0EFE4F2E0849179
:102FF000E1E3F2E09491E82FF0E0EE0FFF1FE150E3
:10300000FF4FA591B491EC91E92321F461E08AE0AE
:103010000E94D00261E08AE00E94FE028CB58061CD
:103020008CBD8CB580648CBD61E08DE00E94FE0299
:1030300061E08BE00E94FE02809196028F5F809398
:103040009602FFBE82E58093A3051092A4058091AD
:10305000A3059091A4050E946D04FAE0FF2E8FEF66
:103060000E944804FA94F110FACF85EA95E00E9494
:10307000700420E030E0A90160E085EA95E00E945C
:103080008604F82E8093AF0581E0F81699F00E942F
:103090002B04601B710B613D774058F381E08093F6
:1030A000AA0585EA95E00E943D048FEB91E00E941D
:1030B0007D10FFCF2AEA31E040E050E068E085EA89
:1030C00095E00E94860482FF2AC0F092B0058091AC
:1030D000B005C12CD12CE12C70E4F72E823019F010
:1030E000C12CD12C760120E030E0A90167E385EA0C
:1030F00095E00E948604A701960169E285EA95E0C1
:103100000E9486048093AF058823D1F00E942B048F
:10311000601B710B613D774030F388E0C0CFE4E085
:10312000FE2E0E944F048093AF05FA94F110F9CF60
:103130008A3A11F082E0B3CF82E08093B005C7CF26
:103140008091B0058230D1F420E030E0A9016AE33B
:1031500085EA95E00E948604882311F086E09FCFDF
:103160000E944F04807C803C19F483E08093B0057A
:103170000E944F040E944F040E944F0485EA95E08C
:103180000E943D0480E58093A3051092A40581E090
:103190000E948C06882309F499C28FEC95E00E9466
:1031A0004309882309F481CF8BEA91E00E947D10C6
:1031B0001C821B8200E311E01A8309831E82CE0168
:1031C00001960E944309BE016F5F7F4FCE01CB96EF
:1031D0000E94880D19A218A21F8F0E8F1BA2219684
:1031E0008FAD2197811179C26C961FAE1EAE6C9780
:1031F00088EE93E0A0E0B0E0A0968CAF9DAFAEAFBC
:10320000BFAFA0978CE391E06A969FAF8EAF6A97AD
:10321000E3961FAE1EAEE397A5961FAEA5976C96DC
:103220008EAD9FAD6C979093F1058093F005A096BD
:103230008CAD9DADAEADBFADA0978093F2059093E0
:10324000F305A093F405B093F505A4968CAD9DAD60
:10325000AEADBFADA4978093F6059093F705A0930C
:10326000F805B093F905A8E5B0E0AC0FBD1F1C96BA
:10327000EAEFF5E08D91819386E0E730F807D1F72A
:10328000E3968EAD9FADE397909308068093070673
:1032900062E082E00E94FE0260E0262E60E0362EB0
:1032A0000E942B040091F7021091F8022091F9027C
:1032B0003091FA02061717072807390708F0FAC1F4
:1032C00020E6EEEDF1E0A7E9B2E001900D922A953B
:1032D000E1F768517C4F8F4F9F4F6093F7027093D7
:1032E000F8028093F9029093FA0287E992E00E9433
:1032F0007D10E5E1F1E08491E9E2F2E01491E7E488
:10330000F2E00491011114C2809103038F5F8430B5
:1033100008F01EC2809303036AE272E086E095E043
:103320000E94FF0F4091030350E070E060E02AE04C
:1033300086E095E00E940E106AE471E086E095E078
:103340000E94FF0F6BE372E087E992E00E94BC1DD0
:103350006BE372E090E080E00E94BC1D6BE372E0E2
:1033600090E080E00E94BC1D6BE372E090E080E0A2
:103370000E94BC1D7C016BE372E090E080E00E9443
:10338000BC1D8C016BE372E090E080E00E94BC1DEC
:103390002C016BE372E090E080E00E94BC1D3C01D8
:1033A0006BE372E090E080E00E94BC1D6BE372E092
:1033B00090E080E00E94BC1D4C01B701C8010E9452
:1033C0009711E7966CAF7DAF8EAF9FAFE797B201D5
:1033D000C3010E9497112B013C01809103038130AE
:1033E00009F4ECC108F4B7C1823009F4F2C18330AA
:1033F00009F4FAC1C090FB02D090FC02E090FD02FB
:10340000F090FE0270E060E0C4010E944B1C9B0142
:10341000AC01C701B6010E94A11F6B017C0120E035
:1034200030E044EB53E40E94F52187FDE8C120E041
:1034300030E044EB53E4C701B6010E94A11F6B01C9
:103440007C016DE372E086E095E00E94FF0F42E0B0
:1034500050E0C701B6010E948211E0910706F09189
:103460000806309709F4E9C18581882309F4E5C18C
:1034700060E572E086E095E00E94FF0F26E0E796A7
:103480004CAD5DAD6EAD7FADE7978EEE95E00E94E1
:1034900094106BE372E08EEE95E00E94FF0F26E041
:1034A000B301A2018EEE95E00E9494106BE372E0EE
:1034B0008EEE95E00E94FF0FC701B6010E94F72033
:1034C000AB01770F660B770B77FFABC1CB01BA016E
:1034D0000E945A1066E672E08EEE95E00E94FF0FA1
:1034E0006091FF02709100038091010390910203AB
:1034F0000E94F720AB01770F660B770B77FF97C120
:10350000CB01BA010E945A106AE471E08EEE95E098
:103510000E94FF0F8EEE95E00E94D90D88E692E0A2
:103520000E947D10F0E4F0937C0080917A0080642A
:1035300080937A0080917A0086FDFCCF809178009C
:10354000A0917900BA2FA82F2FEF30E00E94882297
:103550002FEF33E040E050E00E940F1FF901E95DDA
:10356000FE4F1491C090FB02D090FC02E090FD024F
:10357000F090FE0200910303409111065091120653
:1035800070E060E080911606909117060E94C723B4
:10359000812F0E94590120E030E044E351E4C7014B
:1035A000B6010E94A21F20E030E044EB51E40E94EB
:1035B00085200E94F7208FEF90E0DC010130B1F010
:1035C00080E09FEFAFEFB0E0013080F08FEF9FEF32
:1035D000A0E0B0E0023051F08FEF9FEFAFEFB0E02E
:1035E000033021F080E090E0AFEFB0E08093090677
:1035F00090930A06A0930B06B0930C06E62F660F75
:10360000FF0BE65FFE4F1081212F30E080910F0607
:10361000909110062817390708F044C080910906D8
:1036200090910A06A0910B06B0910C066D01EE2454
:10363000FF24FC2D492E5A2E6B2E7724E42D582F73
:1036400040911506442361F0C49E60011124FD2DB4
:10365000449D20011124E52D489FB0011124572FCE
:1036600000911B066091160670911706F0901806DF
:103670000F11E6C09B0193E0199F200D311D11240D
:10368000A0911806A20FB32FB11DFC93A0911906AB
:10369000A20FB32FB11DEC9360911A06260F311DB6
:1036A000D9015C938091160690911706892B11F031
:1036B0000E945F032114310409F4F2CD0E94040238
:1036C000882309F4E9CD0E940000E6CD80E00E9445
:1036D0008C06882309F4E9CC60CD27E144ED51E064
:1036E000BE01655C7F4FCE014E960E94F511882386
:1036F00009F47ACDCE01CB960E94CF0B49A95AA9E5
:103700006BA97CA9CE014E960E949709BE01625E0C
:103710007F4FCE0101960E94880D44ED51E0BE011D
:103720006F5F7F4FCE01885A9F4F0E94A11377CDC4
:1037300081110E94A702E02FF0E0EE0FFF1FE75F6C
:10374000FE4FA591B4918C91182309F4DDCDE4CD01
:1037500010920303E1CD3FEDA32E3BE9B32E32EAF5
:10376000C32E32ECD32E1AE9E12E11ECF12E04EE29
:1037700011E4A3019201E7966CAD7DAD8EAD9FADD6
:10378000E7970E94B1146093FF0270930003809347
:10379000010390930203A3019201E7966CAD7DAD06
:1037A0008EAD9FADE7970E94D6136093FB02709396
:1037B000FC028093FD029093FE021CCEA12CB12C42
:1037C00090EFC92E91ECD92EE12CF12C00EF11E4F1
:1037D000D0CFA12CB12CB4EBCB2EB2E4DB2EE12C5C
:1037E000F12C00E212E4C5CFA12CB12CF0EFCF2ECA
:1037F000F2ECDF2EE12CF12C0CE812ECBACF20E039
:1038000030E0A901C701B6010E94E81D87FF19CE6B
:1038100020E030E044EB53E4C701B6010E94A21F50
:103820000ECE2AE08EEE95E00E940E1053CE2AE0D6
:103830008EEE95E00E940E1067CE8EE692E070CE7E
:10384000220F331F220F331F260F371F8B2F99276D
:10385000AA27BB27442351F0E42EF12CE89EB001A7
:10386000E99E700DF89E700D1124872FD901A00FCD
:10387000B11D8C9305CF80911606909117060E947A
:103880003123809113069091140697FD03C060E0E8
:103890000C94FE020895B0E0A0E0E1E5FCE10C9498
:1038A0003F1F5C017B016115710519F0DB018D93F0
:1038B0009C9385010F5F1F4FF501D0818D2F90E004
:1038C0000E949B1D6C01892BB9F5DD32B9F50F5FA4
:1038D0001F4FD5011196DC91C1E05801F1E0AF1AFC
:1038E000B10843E050E06CEB70E0C5010E94A41DFC
:1038F000892B69F5680182E0C80ED11C45E050E0D3
:1039000067EB70E0C6010E94A41D892B21F46801B9
:1039100097E0C90ED11CE114F10419F0D701CD9242
:10392000DC9260E070E080E89FEFC111FFC060E0D2
:1039300070E080E89FE7FAC05801BBCFDB3229F482
:1039400085010E5F1F4FF501D181C0E0C6CF43E076
:1039500050E064EB70E0C5010E94A41D892BE9F0E2
:10396000F80110E000E020E030E0A9015F01B0EDD7
:103970008B2E8D0E89E08815C8F19C2E689491F8E5
:103980008C2F8870C2FF16C0811102C00F5F1F4FBD
:103990003196D501DC91C92DE9CFE114F10429F06C
:1039A0000E5F1F4FF7011183008360E070E080EC31
:1039B0009FE7BCC0882311F001501109A5E0B0E0D9
:1039C0000E942E1F9B01AC01220F331F441F551F65
:1039D000280D311D411D511D283999E93907490725
:1039E00099E15907A8F2C6609C2ED2CFAEEF8A1299
:1039F00006C0C3FD3CC09C2E689493F8C9CFDF7D00
:103A0000D534A9F580818D3239F4C061DF01129679
:103A1000818162E070E006C0DF018B32C1F3119654
:103A200061E070E080535D01A61AB70A8A30F8F4AD
:103A3000E0E8CE16ECE0DE065CF4B601660F771F18
:103A4000660F771FC60ED71ECC0CDD1CC80ED11C0E
:103A50005D01FFEFAF1ABF0A8C9180538A30A8F145
:103A6000C4FF03C0D194C194D1080C0D1D1DC1FF2A
:103A700009C0E114F10431F081E0A81AB108D701BE
:103A8000AD92BC92CA01B9010E94ED1DC370C33052
:103A900009F490584B015C0120E030E0A9010E943C
:103AA000E81D882309F440C0CBEED0E017FF05C025
:103AB000119501951109C3EDD0E06E01B8E1CB1A63
:103AC000D10880E2E82EF12C0FC0D501B1CFFE0164
:103AD00025913591459154910E191F09C501B401E5
:103AE0000E944E1E4B015C01D501C4010E151F053D
:103AF00074F72497F594E794CC16DD06A9F78A2F7E
:103B0000880F8B2F881F8F3F49F020E030E0A901FC
:103B1000C501B4010E94E81D811106C082E290E057
:103B20009093260680932506C501B401CDB7DEB774
:103B3000ECE00C945B1F91110C94BB1E803219F0C9
:103B400089508550C8F70895FB01DC014150504071
:103B500088F08D9181341CF08B350CF4805E65917A
:103B600061341CF06B350CF4605E861B611171F3DF
:103B7000990B0895881BFCCF43E256E00E94C11DBB
:103B80000895FA01A191B081009719F41097E1F01E
:103B9000CD01DC01CD010D90002011F4C00113C056
:103BA000FB012191222319F02015D9F7F3CFFB0156
:103BB0002191201519F41E92119606C02223C1F7F7
:103BC0000D900020A1F7D001FA01A193B0830895D0
:103BD0000E942A1E08F481E00895E89409C097FB2A
:103BE0003EF490958095709561957F4F8F4F9F4FD4
:103BF0009923A9F0F92F96E9BB279395F695879518
:103C000077956795B795F111F8CFFAF4BB0F11F4DA
:103C100060FF1BC06F5F7F4F8F4F9F4F16C0882381
:103C200011F096E911C0772321F09EE8872F762FB7
:103C300005C0662371F096E8862F70E060E02AF0F8
:103C40009A95660F771F881FDAF7880F96958795E4
:103C500097F90895990F0008550FAA0BE0E8FEEFB9
:103C600016161706E807F907C0F012161306E40740
:103C7000F50798F0621B730B840B950B39F40A2639
:103C800061F0232B242B252B21F408950A2609F417
:103C9000A140A6958FEF811D811D08950E94611E90
:103CA0000C94D51E0E94C71E38F00E94CE1E20F034
:103CB000952311F00C94BE1E0C94C41E11240C9478
:103CC000091F0E94E61E70F3959FC1F3950F50E007
:103CD000551F629FF001729FBB27F00DB11D639FBE
:103CE000AA27F00DB11DAA1F649F6627B00DA11D64
:103CF000661F829F2227B00DA11D621F739FB00D0A
:103D0000A11D621F839FA00D611D221F749F332779
:103D1000A00D611D231F849F600D211D822F762F12
:103D20006A2F11249F5750409AF0F1F088234AF0EF
:103D3000EE0FFF1FBB1F661F771F881F915050405B
:103D4000A9F79E3F510580F00C94BE1E0C94091FEC
:103D50005F3FE4F3983ED4F3869577956795B795E2
:103D6000F795E7959F5FC1F7FE2B880F911D9695FC
:103D7000879597F9089599278827089597F99F6758
:103D800080E870E060E008959FEF80EC08950024E3
:103D90000A941616170618060906089500240A94B0
:103DA00012161306140605060895092E0394000C36
:103DB00011F4882352F0BB0F40F4BF2B11F460FFC5
:103DC00004C06F5F7F4F8F4F9F4F089557FD9058EE
:103DD000440F551F59F05F3F71F04795880F97FBCF
:103DE000991F61F09F3F79F0879508951216130689
:103DF0001406551FF2CF4695F1DF08C016161706B8
:103E00001806991FF1CF86957105610508940895EC
:103E1000E894BB2766277727CB0197F90895052EED
:103E200097FB1EF400940E94261F57FD07D00E94A6
:103E3000701F07FC03D04EF40C94261F509540953C
:103E4000309521953F4F4F4F5F4F08959095809546
:103E5000709561957F4F8F4F9F4F08950E94921FDD
:103E6000A59F900DB49F900DA49F800D911D1124CE
:103E700008952F923F924F925F926F927F928F920E
:103E80009F92AF92BF92CF92DF92EF92FF920F93E9
:103E90001F93CF93DF93CDB7DEB7CA1BDB0B0FB6F3
:103EA000F894DEBF0FBECDBF09942A8839884888B0
:103EB0005F846E847D848C849B84AA84B984C88446
:103EC000DF80EE80FD800C811B81AA81B981CE0F3D
:103ED000D11D0FB6F894DEBF0FBECDBFED01089522
:103EE000A1E21A2EAA1BBB1BFD010DC0AA1FBB1FFE
:103EF000EE1FFF1FA217B307E407F50720F0A21B70
:103F0000B30BE40BF50B661F771F881F991F1A94DC
:103F100069F760957095809590959B01AC01BD0106
:103F2000CF010895A29FB001B39FC001A39F700D60
:103F3000811D1124911DB29F700D811D1124911DB1
:103F400008955058BB27AA270E94B91F0C94D51E6C
:103F50000E94C71E38F00E94CE1E20F039F49F3F09
:103F600019F426F40C94C41E0EF4E095E7FB0C94AF
:103F7000BE1EE92F0E94E61E58F3BA1762077307A8
:103F80008407950720F079F4A6F50C94081F0EF429
:103F9000E0950B2EBA2FA02D0B01B90190010C0159
:103FA000CA01A0011124FF27591B99F0593F50F471
:103FB000503E68F11A16F040A22F232F342F4427C9
:103FC000585FF3CF469537952795A795F0405395C1
:103FD000C9F77EF41F16BA0B620B730B840BBAF091
:103FE0009150A1F0FF0FBB1F661F771F881FC2F7FC
:103FF0000EC0BA0F621F731F841F48F48795779510
:104000006795B795F7959E3F08F0B0CF9395880FC9
:1040100008F09927EE0F9795879508950E94C71E7F
:1040200060F080E891E009F49EEF0E94CE1E28F037
:1040300040E851E071F45EEF0CC00C94C41E0C9487
:10404000081FE92FE0780E94E61E40F3092E052A9A
:10405000B1F3261737074807590738F00E2E07F82F
:10406000E02569F0E025E0640AC0EF6307F80094FA
:1040700007FADB01B9019D01DC01CA01AD01EF9333
:104080000E949C200E94D51E0E9451205F915523C2
:1040900039F02BED3FE049E450FD49EC0C94A21FB0
:1040A0000895DF93DD27B92FBF7740E85FE3161649
:1040B000170648075B0718F4D92F0E94FA219F932F
:1040C0008F937F936F930E945022E8E6F0E00E9466
:1040D0008F210E94D51E2F913F914F915F910E9499
:1040E000611EDD2351F09058A2EA2AED3FE049EC31
:1040F0005FE3D0785D270E94B91FDF910C94D51E35
:104100000E94B821E3950C94E1210E9499200C941F
:10411000D51E0E94CE1E58F00E94C71E40F029F402
:104120005F3F29F00C94BE1E51110C94091F0C9492
:10413000C41E0E94E61E68F39923B1F3552391F340
:10414000951B550BBB27AA2762177307840738F006
:104150009F5F5F4F220F331F441FAA1FA9F335D063
:104160000E2E3AF0E0E832D091505040E695001C17
:10417000CAF72BD0FE2F29D0660F771F881FBB1FD1
:10418000261737074807AB07B0E809F0BB0B802DAF
:10419000BF01FF2793585F4F3AF09E3F510578F0DB
:1041A0000C94BE1E0C94091F5F3FE4F3983ED4F3B9
:1041B000869577956795B795F7959F5FC9F7880FAF
:1041C000911D9695879597F90895E1E0660F771F01
:1041D000881FBB1F621773078407BA0720F0621B92
:1041E000730B840BBA0BEE1F88F7E09508950E94BD
:1041F000FE206894B1110C94091F08950E94EE1ED0
:1042000088F09F5798F0B92F9927B751B0F0E1F097
:10421000660F771F881F991F1AF0BA95C9F714C047
:10422000B13091F00E94081FB1E008950C94081F6E
:10423000672F782F8827B85F39F0B93FCCF3869580
:1042400077956795B395D9F73EF4909580957095DD
:1042500061957F4F8F4F9F4F08950E94C71E20F09A
:1042600019F00E94CE1E50F40C94C41E0C94091F29
:10427000E92F0E94E61E88F35523B1F3E7FB62178E
:10428000730784079507A8F189F3E92FFF2788238F
:104290002AF03197660F771F881FDAF7952F552779
:1042A000442332F091505040220F331F441FD2F765
:1042B000BB27E91BF50B621B730B840BB109B1F231
:1042C00022F4620F731F841FB11D31972AF0660F0D
:1042D000771F881FBB1FEFCF9150504062F041F015
:1042E000882332F0660F771F881F91505040C1F726
:1042F00093950C9481218695779567959F5FD9F763
:10430000F7CF9F3F31F0915020F4879577956795CF
:10431000B795880F911D9695879597F90895DF9326
:10432000CF931F930F93FF92EF92DF927B018C014B
:10433000689406C0DA2EEF010E94611EFE01E89427
:10434000A5912591359145915591A6F3EF010E94D4
:10435000B91FFE019701A801DA9469F7DF90EF9089
:10436000FF900F911F91CF91DF9108950C94C41E7F
:104370000E94EE1ED8F3E894E0E0BB279F57F0F0D0
:104380002AED3FE049EC06C0EE0FBB0F661F771F1A
:10439000881F28F0B23A62077307840728F0B25AE0
:1043A000620B730B840BE3959A9572F7803830F4A7
:1043B0009A95BB0F661F771F881FD2F790480C9401
:1043C0008321EF93E0FF07C0A2EA2AED3FE049EC2A
:1043D0005FEB0E94B91F0E94D51E0F90039401FC51
:1043E0009058E5E9F0E00C9460220E942A1E08F43F
:1043F0008FEF08959B01AC0160E070E080E89FE3DF
:104400000C9485209F930E94B8210F9007FCEE5FCB
:104410000C94E12119F416F40C94C41E0C9481211F
:104420000E94EE1EB8F39923C9F3B6F39F57550BBC
:1044300087FF0E9459220024A0E640EA900180589C
:104440005695979528F4805C660F771F881F20F09B
:1044500026173707480730F4621B730B840B20299B
:1044600031294A2BA69517940794202531254A27F0
:1044700058F7660F771F881F20F026173707480761
:1044800030F4620B730B840B200D311D411DA09580
:1044900081F7B901842F9158880F969587950895D3
:1044A0009B01AC010C944E1E0E942A1E880B990B96
:1044B000089591505040660F771F881FD2F70895D6
:1044C0009F938F937F936F93FF93EF939B01AC0127
:1044D0000E944E1EEF91FF910E948F212F913F91DC
:1044E0004F915F910C944E1EAA1BBB1B51E107C05C
:1044F000AA1FBB1FA617B70710F0A61BB70B881F74
:10450000991F5A95A9F780959095BC01CD01089502
:104510000E94921FB7FF0895821B930B0895EE0F20
:10452000FF1F0590F491E02D09940F931F93CF93F3
:10453000DF938230910510F482E090E0E09129064B
:10454000F0912A0630E020E0B0E0A0E0309799F446
:104550002115310509F44AC0281B390B24303105D7
:10456000D8F58A819B816115710589F1FB019383DF
:104570008283FE0111C0408151810281138148175D
:104580005907E0F04817590799F4109761F012960F
:104590000C93129713961C933296CF01DF91CF9113
:1045A0001F910F9108950093290610932A06F4CFC6
:1045B0002115310551F04217530738F0A901DB01ED
:1045C0009A01BD01DF01F801C1CFEF01F9CF90934E
:1045D0002A0680932906CDCFFE01E20FF31F8193B7
:1045E00091932250310939832883D7CF2091270610
:1045F00030912806232B41F42091060130910701C8
:10460000309328062093270620910401309105015C
:104610002115310541F42DB73EB740910801509165
:104620000901241B350BE0912706F0912806E217BB
:10463000F307A0F42E1B3F0B2817390778F0AC01C5
:104640004E5F5F4F2417350748F04E0F5F1F5093A2
:10465000280640932706819391939FCFF0E0E0E0F6
:104660009CCFCF93DF930097E9F0FC013297138240
:104670001282A0912906B0912A06ED0130E020E0D7
:104680001097A1F420813181820F931F209127067A
:10469000309128062817390709F061C0F0932806E1
:1046A000E0932706DF91CF910895EA01CE17DF0747
:1046B000E8F54A815B819E0141155105B1F7E90199
:1046C000FB83EA8349915991C40FD51FEC17FD076D
:1046D00061F4808191810296840F951FE90199838D
:1046E0008883828193819B838A83F0E0E0E0129645
:1046F0008D919C9113970097B9F52D913C9111974D
:10470000CD010296820F931F209127063091280633
:104710002817390739F6309751F510922A0610926A
:104720002906B0932806A0932706BCCFD383C28363
:1047300040815181840F951FC817D90761F44E5FDE
:104740005F4F88819981480F591F518340838A8127
:104750009B81938382832115310509F0B0CFF093BB
:104760002A06E09329069ECFFD01DC01C0CF13820B
:104770001282D7CFFB01DC0104C08D91019080191A
:1047800021F441505040C8F7881B990B0895DC0173
:1047900001C06D9341505040E0F70895FB01DC01EA
:1047A0004150504048F001900D920020C9F701C0DF
:1047B0001D9241505040E0F7089511E0CEE2D1E063
:1047C00004C0FE010E948F222196CF32D107C9F783
:0447D000F894FFCF8B
:1047D400FFFFFFFF00002B068000171F272625245C
:1047E400231B130B03040506070F000000003A0205
:1047F4009A01C7018702F801D601EA01000000000E
:10480400770D9A01710BD80D000000002F0E120EC7
:10481400020ED90DE20D650F6F0F0D0A006E616E69
:1048240000696E66006F7666005700530064656722
:104834004D696E3244656344656728292072657446
:1048440075726E65643A200063616C6342656172DF
:10485400696E6728292072657475726E65643A20E2
:104864000063616C6344697374616E636528292015
:1048740072657475726E65643A2000696E69746954
:10488400616C697A6174696F6E20646F6E6500692A
:104894006E6974616C697A6174696F6E20666169AE
:1048A4006C6564004D794D61702E747874002447F2
:1048B40050524D432C3036343935312E3030302C73
:1048C400412C323330372E313235362C4E2C3132A6
:1048D4003031362E343433382C452C302E30332CB2
:1048E4003136352E34382C3236303430362C332EA3
:1048F40030352C572C412A32430043757272656E51
:1049040074207461726765743A20002C0052656CDF
:1049140061746976652042656172696E673A200048
:1049240057726974696E6720746F204D794D617098
:104934002E7478742E2E2E00646F6E652E006572B0
:10494400726F72206F70656E696E67207465737420
:064954002E7478740000CF
:00000001FF
